:10000000F03F0000110000100000000000000000A0
:10001000F8B529204006006A022108432921490633
:1000200008620AF015FA29204006006A0221884376
:100030002921490608620AF067F90C480AF073F9A9
:100040000B48456800260746002404E0A000385805
:10005000A1007050641C282CF8D300204560A847EC
:1000600000BF00BF00BF00BFF8BD000080C3C901D2
:10007000000400100000000000000000000000006C
:100080000000000000000000000000000000000070
:100090000000000000000000000000000000000060
:1000A0000000000000000000000000000000000050
:1000B0000000000000000000000000000000000040
:1002C000000300000000000000000000000000002B
:1002D0000003000000B900000003000000B90000A6
:1002E00000C0000000040000010001000200300115
:1002F00001015649454E4E41000000000300000038
:1003000000000000000000000000000000000000ED
:1003100000000000000000000000000000000000DD
:1003200000000000000000000000000000000000CD
:1003300000000000000000000000000000000000BD
:1003400000000000000000000000000000000000AD
:10035000000000000000000000000000000000009D
:10036000000000000000000000000000000000008D
:10037000000000000000000000000000000000007D
:10038000000000000000000000000000000000006D
:10039000000000000000000000000000000000005D
:1003A000000000000000000000000000000000004D
:1003B000000000000000000000000000000000003D
:1003C000000000000000000000000000000000002D
:1003D000000000000000000000000000000000001D
:1003E000000000000000000000000000000000000D
:1003F00000000000000000000000000000000000FD
:10040000F03F000057090010000000005F090010D5
:1004100000000000000000000000000000000000DC
:1004200000000000000000000000000000000000CC
:100430000000000000000000D5050010B38100108E
:100440000B34000055090010550900105509001023
:1004500055090010C99C0010E79C0010BF2A00102D
:1004600055090010550900105509001055090010D4
:1004700055090010D3160010E12A0010032B0010BC
:10048000252B0010550900105509001055090010C2
:1004900055090010550900105509001055090010A4
:1004A0005509001055090010550900105509001094
:1004B0005509001055090010550900105509001084
:1004C00003B40148019001BDA534000003B4014804
:1004D000019001BDC100000003B40148019001BDBD
:1004E000F100000000F002F800F040F80CA030C865
:1004F000083824182D18A246671EAB4654465D46A0
:10050000AC4201D100F032F87E460F3E0FCCB64629
:100510000126334200D0FB1AA246AB4633431847AC
:1005200064CD0000C4CD0000103A02D378C878C171
:10053000FAD8520701D330C830C101D504680C6025
:10054000704700000023002400250026103A01D344
:1005500078C1FBD8520700D330C100D50B6070477B
:100560001FB5C046C0461FBD10B510BD0BF072FED2
:100570001146FFF7F5FF00F00AFA0BF08AFE03B40C
:10058000FFF7F2FF03BC00F03CFA000002B472B6C1
:1005900001780131017062B60139080002BC704770
:1005A00002B472B601780139017062B6080002BC6B
:1005B0007047000062B6704772B670471C3880F30F
:1005C00009887047014802490160704704ED00E066
:1005D00000000010114B1968114A1268914216D0A0
:1005E000EFF3098020380860F0C044464D46564677
:1005F0005F46F0C01A6010681030F0C8A046A946E7
:10060000B246BB462038F0C8103080F30988054B4D
:10061000002018700420404200470000B002000093
:10062000AC0200009F020000FCB400220023002462
:10063000002500260027062902D4FCC00639FAE767
:10064000002902D004C00139FAE7FCBC7047000061
:1006500070B505460C46164602E00FCC0FC5103E9D
:10066000102EFAD2082E02D303CC03C5083E042E66
:1006700007D301CC01C5361F03E021782970641C23
:100680006D1C761EF9D270BD30B503460020B04C0B
:1006900001465A569200121952684D00AA40491C50
:1006A0001043C9B21029F4D330BDF8B504460E4644
:1006B00017461D46102110460BF073FB06988078F4
:1006C000A04254D80699C978A14250D3201AC1B289
:1006D0000024E878AA7803E0091A1319C9B2DCB239
:1006E0008842F9D9601E10182B7AC0B2834204D810
:1006F000981AC4B2601E1018C0B2002E0AD0012E83
:100700000FD0202833D3202C1FD22022121BD2B28C
:1007100000241DE0102C2AD2102800D30F20002224
:1007200023E0202C23D2102821D3102C04D2102215
:10073000121BD2B2002402E0103CE4B200222028B6
:1007400001D30F2011E0103803E00022203CE4B276
:100750002038C0B209E0EB786E685343F318CB5CE5
:100760003B55641C521CE4B2D2B28442F3D9F8BDAA
:1007700078B56C4603462170002062701C0101466A
:100780006E46012573567F22002B04DB1A1B520094
:1007900052B2002A02DB2B4693401843491C49B24F
:1007A0000229EFDB78BDF0B517460024012205468B
:1007B0000E468A5687B031572046FFF7D9FF05907D
:1007C0002E2D08D2102D02D26800012484400598F5
:1007D000204307B0F0BD3A78AA4211D87878A842F1
:1007E0000ED30020717A03E0A400641C401CC0B248
:1007F0008142F9D8A81A4843410020468840E8E7DA
:10080000334601AA002128460097FFF74EFF01A8B2
:10081000FFF73AFF05990843DBE7F0B517460122D9
:1008200005460E4600248A5687B031570120FFF74F
:100830009FFF05902E2D08D2103D102D02D268008A
:100840000124844005982043C3E73A78AA4217D888
:100850007878A84214D30020717A03E0A400641CC5
:10086000401CC0B28142F9D8A81A4843410020393F
:1008700002D420468840ACE749422046C840A8E759
:10088000334601AA012128460097FFF70EFF01A871
:10089000FFF7FAFE059908439BE7F0B517460122DA
:1008A00005460E4600248A5687B031570220FFF7CE
:1008B0005FFF05902E2D08D2203D0E2D02D268003C
:1008C000012484400598204383E73A78AA4217D848
:1008D0007878A84214D30020717A03E0A400641C45
:1008E000401CC0B28142F9D8A81A4843410040399F
:1008F00002D4204688406CE749422046C84068E759
:10090000334601AA022128460097FFF7CEFE01A830
:10091000FFF7BAFE059908435BE770B504460D463C
:10092000007AA1784018401E0BF049FA617A064619
:1009300008462D300BF039FA2E30A870E17871435B
:100940004118491EE9702E212970401E687070BD43
:100950003CC50010FEE710B5FFF7C4FD10BD10B593
:100960001D4809F0E0FC10BD10B507F072F81B4BF4
:100970001B4A00211B4807F09CFA194A1A4B521CCB
:1009800000211A4807F095FA07F086F810BD10B557
:1009900009F0D1FCFFF794FD09F082FD09F0CEFBD0
:1009A00009F0A6FD09F02EF909F0F2F900F0BAFC01
:1009B0000F48012301780F481A46007809F02EFFEE
:1009C00008F0A4F9012200210B480AF083F9FFF78F
:1009D000CBFF012010BD0000A02E6300B80900006D
:1009E00009900100A7140010F80F0000291700104B
:1009F0007BC900107AC90010F07F00400A46034608
:100A00007047FEE7FE4A10705160704710B5002233
:100A1000D2430921FB480BF09FF910BDF0B5417896
:100A200001290FD0002300220178FF24F64D9446BF
:100A3000002905D001290BD0022907D0032903D0B2
:100A40002A4605E0FF23EEE7002401E0FF218C4663
:100A500000210F468D05ED4E2D0CAD196F62AB6276
:100A60006C602A626646AE60491C89B20629F1D3E1
:100A70008178E74AC9005358E1494C682402240AA6
:100A8000234329246406A36380780978C000801872
:100A900040684907490F0843DE490860F0BDDE4A57
:100AA00000218B00C3581360491C0C29F9D37047EF
:100AB00010B5DA4B00218A008458D2181462491C00
:100AC000C9B20A29F7D310BD10B5028BD249521E04
:100AD00040310A60428B521E4A60026A521E8A608E
:100AE000036AC269D21A521ECA60C289CA49521E1A
:100AF00080314A614269521E8A6143690269D21A91
:100B0000521ECA61828C521E0A62C28C521E4A62F6
:100B1000C26A521E8A62C36A826AD21A521ECA62AC
:100B20000388BF4A5B1E136343885B1E536383685D
:100B30005B1E9363846843681B1B5B1ED363028E3A
:100B4000521E0A63428E521E4A63826B521E8A6391
:100B5000426B806B101A401EC863012010BDF3B5B4
:100B600081B00826AF4DB04801990BF01EF9470837
:100B70007F007D2174423846C90048430090AB484D
:100B8000AB496043401800990BF019F90199081A14
:100B900000D54042A84202DA264605460836641CC3
:100BA000082CECDB029806703846FEBDFEB5054603
:100BB00008460E4624300C460F4601910090303610
:100BC00018340C3768883E31FFF7C9FF6060400871
:100BD000A060287829794018608001202080297A37
:100BE0006A7A8A1801998A6061884A0001994A8064
:100BF00061684A0801994A60297A521C521A01997F
:100C00000A8030800F207080A068801E000970600C
:100C100069790BF0CAF870604008B0606979A06823
:100C20000BF0C3F801462A7860685043401C09184D
:100C30000122AA5670685043401C091A0098491EA8
:100C400001806979A0680BF0B0F801460098416016
:100C5000B1680098491C816028796979484341004E
:100C6000009841806068B86060686288411C521CCE
:100C70005043A0300818786065684019401E294626
:100C80000BF093F8684378606168890840187860D1
:100C900060887880FEBD604A10B5803A116B0446CA
:100CA0008079002800D08020090E090601437120B8
:100CB00001431163E1683C20085EA27A904205D0AE
:100CC0002046FFF773FFE168A07A8887E068FFF7A6
:100CD000FBFEE0682030807F09F08BFB10BD30B553
:100CE000028B4D49521E40310A60428B521E4A60AF
:100CF000026A521E8A60036AC269D21A521ECA6010
:100D0000C2894549521E80314A614269521E8A6138
:100D100043690269D21A521ECA61828C521E0A624B
:100D2000C28C521E4A62C26A521E8A62C36A826AB8
:100D3000D21A521ECA620388394A5B1E1363438863
:100D40005B1E536383685B1E9363846843681B1B4D
:100D50005B1ED363038E5B1E0B63438E5B1E4B6374
:100D6000836B5B1E8B63846B436B1B1B5B1ECB63B4
:100D7000838F2B495B1E40390B60C38F5B1E4B601A
:100D8000436C5B1E8B60446C036C1B1B5B1ECB6057
:100D9000034640331C89641E0C615C89641E4C61EF
:100DA000046D641E8C61056DC46C641B641ECC6193
:100DB0009C8A641E0C62DB8A5B1E4B62C36D5B1EE9
:100DC0008B62C46D836D1B1B5B1ECB62034660335D
:100DD0001C88641E0C635C88641E4C63846E641EF5
:100DE0008C63856E446E641B641ECC639989491EB6
:100DF0001160D989491E5160416F491E916019E007
:100E000000020000FC0F0000555500000000405398
:100E10004CC5001040000052C00000554003005572
:100E2000C001005540420F00409C0000400D0300EF
:100E3000005A6202016F406F081A401ED060012004
:100E400030BDF0B5054687B008460A4624303C322E
:100E50006B4607C3243003900C3004900C3005908F
:100E60000E460C460F460C300690303618340C37C0
:100E700068887A31FFF773FE60604008A0602878C8
:100E80002979401860808020208061688A08019953
:100E9000163A8A6061884A0001994A8061684A0866
:100EA00001994A6001998B220A806168029A890837
:100EB0009160029A61885180029A61685160029A39
:100EC0001080606881080398816003986188418080
:100ED000039861684160606841080398803101802F
:100EE0006068810804981439816060884100049822
:100EF00041806068410804984160606881080498F6
:100F00008A31018060684108059881606188059890
:100F100041800598616841606068810805986C317E
:100F20000180606841080698816006986188418068
:100F30000698616841606068800841004118069821
:100F40006C310180012030800F207080A068801EED
:100F50000009706069790AF028FF70604008B0608D
:100F60006979A0680AF021FF01462A786068504339
:100F7000803009180122AA5670685043401C091A93
:100F80000098491E01806979A0680AF00EFF0146A9
:100F900000984160B1680098491C8160287969799E
:100FA00048434100009841806068B860606862888A
:100FB0000146521C42434008803110180818A030E6
:100FC000786065684019401E29460AF0EEFE6843C5
:100FD000786061688908401878600120788007B0DF
:100FE000F0BD10B5C94A0446116B8079002800D0C5
:100FF0008020C74B19400143C64801431163E16893
:101000007820425EA07A824206D02046FFF719FF80
:10101000E068A17A60300183E068FFF760FEE06875
:101020006030807E09F0E5F910BDBB4902680A61B5
:1010300042680A6280684862704730B54179FF2291
:1010400049041202891A8279B04B11435963B3499A
:1010500000240C6102792146002A02D0012A1DD108
:1010600009E000200122451E9A639D63801C80B226
:10107000FF28F9D912E0002107E002684D00525B19
:101080009A6352429A63491C89B242798A42F4D8DF
:101090001006FF21C00D0131081A81B2002002E0C4
:1010A0009C63401C80B28842FAD330BD7CB50646B2
:1010B0006946FFF732FC994D0024E0B26A4631469A
:1010C000FFF771FB2860E0B26A463146FFF7A5FBE7
:1010D0006860E0B26A463146FFF7DFFBA860641C37
:1010E000802CEAD37CBD894A7F21C0321161DDE7C3
:1010F000864B10B50022803394000C591C61521CA1
:10110000142AF9D3814A002140328B00C35813635B
:10111000491C0C29F9D310BD01684068E8E770B597
:101120007D4C0021403C8B001A181B19156D1D6069
:10113000D26D1A61491CC9B20329F4D35523734CEB
:1011400000211B0640348A008558D61835631518CF
:10115000AD6A12191560491CC9B20A29F3D370BDD2
:1011600070B50446C0686E4DC068002811D0682173
:101170000222095CAA56914201D1090609D5002133
:10118000FFF7CDFFE068C0686030007A4006400E8F
:10119000A870E068806800280ED00122017AAA5663
:1011A000914201D1090607D5FFF7B6FFE0688068D4
:1011B000007A4006400E6870E068806900280ED012
:1011C0000522817AAA56914201D1090607D5FFF777
:1011D0008AFFE0688069807A4006400E6871E068A6
:1011E000C06900280ED00622C179AA56914201D1C9
:1011F000090607D5FFF721FFE068C069C0794006FE
:10120000400EA871E068006A00280ED00722017B1A
:10121000AA56914201D1090607D5FFF706FFE068FB
:10122000006A007B4006400EE871207C0228E068DE
:101230005BD0006800280ED00022817AAA56914225
:1012400001D1090607D5FFF726FDE0680068807A1E
:101250004006400E2870E0680069002811D028215F
:101260000322095CAA56914201D1090609D5002141
:10127000FFF71EFCE06800692030007A4006400E4F
:10128000E870E0684069002810D030210422095C31
:10129000AA56914201D1090608D5FFF700FCE06883
:1012A00040692030007C4006400E2871E068406AAA
:1012B00000280ED00822C178AA56914201D1090611
:1012C00007D5FFF7ABFBE068406AC0784006400EE8
:1012D0002872204608F0ABFC207C022814D00320A2
:1012E00008F0A4FF08F0EBFC70BD40680028B2D005
:1012F0000022817AAA56914201D10906ABD5FFF7A7
:1013000070FEE0684068A2E70420E9E7400000556D
:101310000FE00FE0F11F00008003005500020055B0
:10132000FC0F000010B5012007498007FFF77CF98A
:10133000064900200870064A0121117005490880FD
:101340000549088010BD0000FC1F00000A020000D3
:1013500020020000081000003402000010B5002830
:1013600001D001F027FAE14900200A460870203236
:1013700050700873086148618877C87710700877E3
:10138000487710BD10B5DA4C0021A07806F018FCA3
:10139000A07806F063FC10BD014610390F2905D96D
:1013A000992805D1D2484079002801D00120704702
:1013B00000207047F8B5CD4CCE49608840182BD13D
:1013C000CD4800270078102822D109F0CBF8A0885A
:1013D000012804D0042805D0072816D018E007F00B
:1013E000D9F915E0C54D0097C54E2B783278042108
:1013F0008B2009F0BBF82A7831780020514301E0B6
:1014000000BF401C8142FBDC02E0002007F0C3FC6F
:10141000B9486780012101730120F8BD10B5044669
:10142000112802D0122C03D006E0B049042001E0BC
:10143000AE49082008F0B2FCAD4900204B78AE4A16
:101440009C4203D0992C03D1487121E0992C21D0E2
:10145000002C1DD0102C1BD0112C19D0122C17D001
:10146000802C15D0862C13D08A2C11D08B2C0FD029
:101470008D2C0DD08F2C0BD0902C09D0922C07D016
:10148000942C05D0952C03D0992C01D010700024F9
:101490004C7010BD4879401CC0B248710328F7D386
:1014A00010201070F4E7FFF7B1FA954802789348DE
:1014B0000178944801F081FA01F036FC06F018F941
:1014C00009F0D4FD0120FFF749FF07F035F806F0D9
:1014D000A7FE04F0C6FD03F043FE07F09AFB02F0FE
:1014E0006BFC0021084606F0F9FA814C0021A0703F
:1014F000012006F0F3FAE0700121084606F0EEFA4A
:1015000020710121084606F0E9FA7F49087001219F
:10151000084606F0E3FA7D4908700021042008F02F
:101520003DFC724D01262C462034794808F0FBFE24
:10153000287803000AF0E3FE050439848EBCC80055
:10154000012008F073FE09F098FDC822714974204B
:1015500009F0B2FE7048007800280FD0287FDE2105
:1015600006F0C7FF2E7766700220A0700A20E07098
:101570006148407808F05CFF2E70D6E709F07DFDE9
:101580006648674902786748007809F047FE0746D1
:10159000287F09F083FD2877022800D16E7739462D
:1015A00006F0A7FF09F069FDDDE707F06AFB524F7F
:1015B0003878FFF733FFFFF7FDFE3878FFF7ECFED2
:1015C00000281FD1787800281CD06078002810D01F
:1015D000397899290DD0012802D0022805D006E0DB
:1015E000A178E07800F0D2FB01E000F09FF9002044
:1015F00060703F480178002902D1067000F0CEF8F3
:1016000000F049FA287B02280AD001280DD0A87FD3
:10161000012810D02869401C2861FFF7B3FE84E739
:1016200008F0FAFE022028707FE708F0F5FE00209F
:10163000A8610320F7E709F019FD2E770420F2E7EF
:101640000020C04308F06FFE012008F0A5FE002036
:101650002873E8E70020C04308F065FE00F036FB81
:1016600000F044FCA8690027002805D000F085FCA4
:10167000070001D100F009FC287B002806D0012FCB
:1016800004D07D21A869C90088420CD1002008F04F
:10169000CDFD012008F0CAFD1748407808F0C8FECB
:1016A00009F0E4FC68E7401CA861FEF70FFF3CE787
:1016B0000020C04308F037FE0F4F0820387008F0B4
:1016C0009FFC0020387057E71421002003F054FAE3
:1016D0002BE710B506F08EF90548807806F0EDFA94
:1016E00008F06CFD06F08BF910BD0000201800001A
:1016F00036020000E9F7FFFF103000007BC9001040
:101700007AC90010D01E0040080200000902000043
:1017100080C3C901B80B0000D4300000BC30000009
:101720007EC90010C802000000252C4F2C462E4612
:101730002C482B49007806F043FA002803D01321E7
:10174000002003F019FA2848007800280BD0641C08
:101750001E2C0CDD214801212030417000248170B5
:101760000821C17003E0002400F042F805461F483C
:1017700000780028DCD1387B002807D0002DD7D096
:101780000021022008F00AFB3E73D1E7002DCFD0E4
:101790000021022008F002FB7E61C9E7F8B501F0E4
:1017A00007F803460021801C10250A460F4C12261C
:1017B0000AE0028042808280827141720572C7799C
:1017C0003743C7710A30491CA7788F42F1D81F7080
:1017D0005A700021022008F0E1FAF8BD201800003C
:1017E00080969800390200003C0200001030000092
:1017F000F8B587203E4DC000E8800F20C001288149
:1018000007F051FA3B4A0023507F01263A4C3B49EE
:10181000012802D0022806D007E0FF202D30086002
:101820002670537704E0237053770868002802D0AD
:10183000401E086003D103210A2004F0C3FD03F019
:1018400014FC09F0FEF807F0BBF92D4900960B785F
:101850002C4928780A78042108F088FE2A4803F0E9
:1018600037FE2A4F2E23387029482A4AC35E26485D
:101870002949006804F0E1F8284A3978224803F041
:10188000C7FF38701E4900960B781E4928780A78E1
:10189000082108F06BFE1A4900960B781949287840
:1018A0000A780B2108F062FE17483022825E217808
:1018B0001B4805F032FE1A4805F059FE002802D0F8
:1018C00009F043F801E009F044F805F0FAFE02F0EF
:1018D00028FE0446012007F05EFA124912480A6BFE
:1018E000521C0A630122114609F0F4F92046F8BDA2
:1018F00010300000201800000A0200004002000022
:101900007BC900107AC90010401A00002C020000A8
:1019100084300000081000009C100000300200001D
:10192000741C0000F4310000F07F0040F0B5FB486B
:101930007D21BFB0C900007806F042F9002803D02D
:101940000521002003F018F9022008F06FFCF44C88
:10195000207806F083F906F0F1FC6421207806F087
:101960002FF9002829D00020EE4903F005F90220C4
:1019700008F012FD06F0F5FE01F061F8039000207A
:1019800001228100520206AB5A5022AC401C625028
:101990001C28F5DB002000907321490101F08AF931
:1019A0000290E149009801F085F90646DF49009868
:1019B00001F080F9074600203EE00120D4E7012035
:1019C00040020024059029E00399009865004843EF
:1019D0000019C0B20490785F002800DA4042322833
:1019E00006DA0298715F405F00030AF0E8F908E048
:1019F000049806A98000085805994018C10F0818D6
:101A00004010715F22AA4143491271530499059015
:101A1000890006AD6B5853506850641C009801F063
:101A200011F8A042D0DC03980299400041188619B1
:101A3000C71901980291401CBD490190097888425C
:101A4000BDDB0098401CC0B200900428A4D3B3486A
:101A5000007806F00BF93FB0F0BDF8B500252E4632
:101A6000490009E0002403E06700C75F7D19641C9A
:101A70009C42F9DB0818761C9642F3DB1146594369
:101A800028460AF09CF9FF212D31884201DA002016
:101A9000F8BD0120F8BDF0B585B0022008F0C6FB06
:101AA000A44CA54EA07931689D4D084310D12878EB
:101AB00006F0D4F8A148807806F089FC64212878E3
:101AC00006F07EF8002803D00721002003F054F828
:101AD0009B487D21C900007806F072F8002803D0E9
:101AE0000821002003F048F8287806F0B7F806F03F
:101AF00025FC90483168807908437DD09148047F67
:101B00006421287806F05CF8002803D00921002021
:101B100003F032F82A211C2310224807FFF79DFF0B
:101B200000286AD07D486421007806F049F8002832
:101B300003D00A21002003F01FF806F012FE2878D7
:101B400006F08CF806F029FC07F014F964212878D7
:101B500006F036F8002803D00B21002003F00CF823
:101B6000022008F019FC724807210078801D0AF055
:101B70001CF9C100081AC2B2012773480097017806
:101B8000007839400818C3B270480021007808F086
:101B9000EDFC6E4800976E4D00782B7801220521F0
:101BA00008F0E4FC6B4A6C496C480323127809780E
:101BB0000078049301AB07C328780090684A69480D
:101BC000674B803A6749803808F08FFD2878644970
:101BD0004200803964480AF07EF861482A786249F8
:101BE000803805F08EFE5948009700782B78012246
:101BF000062108F0BBFC01E008E014E05B4804F0BB
:101C000057FA5B480078002811D020E04B480023A9
:101C100081781A46574809F0ACFA4A48007F09F023
:101C20003DFAC4B26CE7544808F07DFBFEE72A7821
:101C30000320042100920191029050480397484AE2
:101C40004749037880328039464804F0CFFA0121B1
:101C50004B4801F034F83748007800282CD1394D32
:101C6000287FA04210D0022C02D0012C07D00BE01C
:101C700009F003FA6F772C774020306007E009F015
:101C8000FCF9022068772C773068002814D006F021
:101C900038FC054629483B4942783B48007809F022
:101CA000BDFA81B23068012808D02946204606F0E6
:101CB00020FC3068401E306005B0F0BD204606F0C4
:101CC00018FC09F0DAF9FFF731FEF2E738B5052024
:101CD00008F0ACFA124C207805F0C0FF06F0D7FBF4
:101CE0006421207805F06CFF002803D00F2100202C
:101CF00002F042FF052008F04FFB0120009014483D
:101D0000082201780078C907C90F0818C3B20F4824
:101D10000021007808F02AFC38BD0000090200000C
:101D2000160300000903000090150000F0230000D6
:101D30007AC90010D430000044020000BC3000001A
:101D40003A020000201800007DC900101030000089
:101D50007BC900109BC900109AC9001099C90010D6
:101D60009036004020350040901600007C1A00009C
:101D70002C0200006012004080C3C9019CC9001001
:101D8000A589001084C90010C9020000F0B50646FC
:101D90008E480F4685B06421007805F011FF0028B9
:101DA00003D01021002002F0E7FE3C218848FEF716
:101DB0003BFC73200221800100F077FF022008F035
:101DC00035FA002435E0834D287805F047FF06F00A
:101DD000B5FA6421287805F0F3FE002803D011211C
:101DE000002002F0C9FE287805F038FF06F0D5FA89
:101DF0006421287805F0E4FE002803D01221002099
:101E000002F0BAFE06F0ADFCBC4210D37348724D2E
:101E10007321027889012B78481000F076FD0020AC
:101E200000902B7801226A496D4804F096F9641CF1
:101E3000E4B2B442C7D3684DF41B287800906748D9
:101E4000A2B2037873206749800100F082FD2978EF
:101E50000023032201206D460FC5A2B260495C4CED
:101E600004238031204604F08EF93C212046FEF701
:101E7000DBFB01215C4800F018FF022008F08CFA1F
:101E80005248007805F0F2FE16E7F8B500275649EB
:101E9000384600F00FFF06465249384600F00AFF68
:101EA0000546002418E000244C4905E060002A5A49
:101EB000335AD2182A52641C08788442F6DB00F0A8
:101EC000BEFD4000451949482040012803D100F0DB
:101ED000B6FD40008619641C384600F0B3FDA042F0
:101EE000E1DC7F1CFFB2042FD1D3F8BDFEB500208A
:101EF00000903D4900F0DEFE01900021009800F0C6
:101F0000D9FE0546002700F09AFD0099484341009C
:101F1000382078430918012080070818002402900F
:101F200011E002986600805F0521C9014843422103
:101F300009F045FFA95F00B2091ACA100199641C93
:101F40008A53A853E4B2009800F07CFDA042E8D880
:101F500000F075FD410001980818019000F06FFD38
:101F600040007F1C4519FFB2082FCCD30098401CBD
:101F7000C0B200900428BCD3FEBDF8B50027384697
:101F80000097194900F096FE05460026002403E05C
:101F90006000285EC719641C009800F053FDA04241
:101FA000F6DC00F04CFD40004519761C082EEDDBF8
:101FB0000098401CC0B200900428E2D3AF208000FB
:101FC000874201DD0120F8BD0020F8BD09020000B4
:101FD00010360040160300007BC900107AC90010BB
:101FE000A034004090150000F023000001000080A4
:101FF00070B5FF4C00232268DB43D568AB875C25B6
:10200000022817D007DC002812D0012802D1FF20B7
:102010007330508070BD0026F649032814D0FF2885
:10202000F8D10E63002008F0CDF8606A067070BD2C
:10203000558070BD002905D0022008F0C3F8206843
:10204000458070BD0120F8E7102008635580616A63
:1020500003200870E848066070BD70B505460E465E
:102060000124022008F0E2F831462846FFF7C0FFBD
:10207000E24D287805F0F2FD06F0E6F964212878B3
:1020800005F09EFD002803D00221002002F074FD1F
:102090000021FF20FFF7ACFF022008F07DF9204669
:1020A00070BD30B5D74AD849D54B097812781C0293
:1020B00000204A4303E041005D5A6552801C824281
:1020C000F9DC30BD38B5CF4C002807D0012808D046
:1020D00002280BD003282AD1002104E00021084661
:1020E00001E000210120FFF7B8FF17E000210220E6
:1020F000FFF7B3FFC44801780078C907C90F081873
:1021000021784843420001218907BD48FEF7A0FA23
:1021100001210220FFF7A1FFFFF7C3FF012000907C
:10212000BA48227803780921802008F01FFA38BDC8
:10213000B7490120C877B749002008707047F3B548
:1021400081B000252AE0002422E000F078FC01465E
:10215000204609F02AFE029900F0ACFD064600F088
:102160006EFC6843400036183878FE21401C084059
:102170006843410001980F1800F061FC01462046B9
:1021800009F013FE48006100305A641C7852E4B232
:102190009E4F38788442D8D36D1CEDB299480078B0
:1021A0008542D0D3FEBD70B5049C5A43002C0BD0A1
:1021B000002306E05C00065F0D5FAE4200DD0553C4
:1021C0005B1C9342F6DB70BD002306E05C00065FFB
:1021D0000D5FAE4200DA05535B1C9342F6DB70BD27
:1021E000F0B5064600205A4303460BE05D00745FDD
:1021F0004F5FE41B00D5644224B2844200DD2046D8
:1022000074535B1C9342F1DBF0BDFFB58E469C46D8
:10221000002411E060466043410000980D18002042
:10222000A70006E00B994600AB5BC9595B1AAB539C
:10223000401C9042F6DB641C7445EBDBFFBDFFB530
:1022400094469E4600200C9E0B9D1CE000214700FA
:10225000E9533154714641434A0000995318002113
:102260000EE04A009C5E099A944208DC0A9A944265
:1022700005DBEA5B1419EC53345C641C3454491CD0
:102280006145EEDB401C01998842DFDBFFBDF7B5FD
:102290000446D0B0732040010C905F48BB267327E2
:1022A0001190B601BF01594810960F970178007838
:1022B000C907C90F08180121400089074018149068
:1022C0005748079056482421603005905448534D94
:1022D000C0300A9053480890534841800021416023
:1022E00047210170082141704F48083004905298EE
:1022F000002802D1032102F03FFC4C486421007801
:1023000005F05EFC002803D00421002002F034FC1C
:10231000E00703D03046022100F0C7FCA00703D538
:102320003846012100F0C1FC414861070078800077
:102330000990002903DA0146079809F034FD2007C7
:1023400003D50999089809F02CFD0020069038481B
:10235000007840000B90069860E1022007F066FFCD
:10236000264E307805F07AFC05F0E8FF64213078DD
:1023700005F026FC022008F00FF806F0F2F920071D
:10238000800F25D000261FE01F4900220978104643
:10239000CB07DB0F59188C46770008E061464143B4
:1023A0004B0014995918C95F8A18401CC0B21549CE
:1023B00009788842F2D313480178104609F0FFFCEF
:1023C0000599761CC853F6B2194800788642DBD3CB
:1023D00052990698884270D3E0072DD010980B4A86
:1023E00081B213780C98074A80B2127822E000007C
:1023F000EC230000C0030055480200001603000053
:102400000000405E7AC900107DC900107BC9001031
:10241000201800001030000090150000F02300008C
:1024200030140040501500405037004009020000B1
:102430007CC9001000F069FAA0077DD50026D14FB5
:1024400000F0FDFA01900C9881B2304600F032FCA9
:102450000090A9B2304600F02DFC3A78019B00991B
:10246000FFF7BEFE761CF6B2042EE9D30026C6495D
:10247000304600F01FFCC4490D906031304600F03A
:1024800019FC0E9000F0DBFA1390304600F0DAFAF7
:102490001290A9B2304600F00DFC0E9F0D9B0E224B
:1024A0000397D2431E216F460EC7B64F139B397850
:1024B000129AFFF7C4FE002119E088E0002E05D132
:1024C00000208B0015AAD05043AA5054880015AAAA
:1024D00013580D9A4F00D25F9A1815AB1A500E9AE6
:1024E00043A8435C525C9A184254491CC9B2A5489F
:1024F00000788142E2D3761CF6B2042EB7D30026D0
:102500000DE043A8815DB70015A8C059CA22504309
:1025100009F055FC011215A8761CC151F6B2994874
:1025200001788E42EDD30026074600F088FA0D9020
:10253000304600F087FA00E02DE00390A9B2304663
:1025400000F0B8FB0E2215ABD2431E21029301927C
:10255000009139780D9B039AFFF757FE761CF6B26F
:10256000042EE2D3002600F06AFA0290A9B23046A7
:1025700000F0A0FB01900F9881B2304600F09AFB6A
:10258000002100913A78029B0199FFF70CFE761C1E
:10259000F6B2042EE7D3600708D5002000907B48F0
:1025A000012203780799059803F0D7FD20070ED57F
:1025B000764E0122337805990A98FFF711FE002024
:1025C0000090337801220A990898FFF7ECFDA007E4
:1025D00018D5002600F033FA6A49097848434700C5
:1025E0000C9881B2304600F065FB0090A9B23046ED
:1025F00000F060FB3A46009909F06DFB761CF6B2DC
:10260000042EE7D3200704D50B9A05990A9809F000
:1026100062FBFEF7B7FE0698401C0690519988426F
:1026200000D29AE6529A5198E107851A58480278E2
:102630005448007850434600002914D05448514B68
:1026400000780090E804020C11981B7881B2109871
:1026500080B200F07EF9119881B20498FFF76FFD07
:102660000498301804904948494A00781278610764
:10267000101A4700002920DA444900200978012275
:102680000290009201910390AAB202230499079844
:1026900003F079FD04990B9845183D4801783B48B3
:1026A0000078814203D20521002002F065FA394604
:1026B000284609F076FB78190490A00707D50F98F3
:1026C00081B20498FFF73BFD04983018049020076E
:1026D00015D52E4C099A0899049809F0FCFA04992A
:1026E0000B9845182A4908782178884203D2062198
:1026F000002002F041FA3946284609F052FB2548ED
:10270000007805F0B3FA53B0F0BDF0B522A30FCBBB
:1027100085B06C460FC4012005F0D4FE05220F21C0
:102720000420FFF7B4FD00206D461F4E1F4F174CCD
:1027300009E0295C002904D041008A19128BC919CB
:102740000A80401CC0B221788842F2D3022005F0F2
:10275000B9FE05220F210420FFF799FD002009E0B2
:10276000295C002904D04100CA19128889190A83FA
:10277000401CC0B221788842F2D3002005F0A2FEAE
:1027800005B0F0BD7AC90010F03D00007CC9001012
:102790007BC90010090200000100010001000100D6
:1027A000010000010100000040370040A03400405B
:1027B0001E48704730B51E491C4A097874321170A2
:1027C0001C490123097851709382D382022111831D
:1027D000FF2131315183114620318B70CB700020A5
:1027E0000023154993840C1820341518A47C401C30
:1027F0002C770628F7D3002004E0410089180B71DC
:102800004B71401C91788142F7D80D490B481363F6
:10281000086030BD00200A4A0146121D1318401CF2
:10282000C0B219730C28F9D3704700008031000042
:102830007AC900107BC90010C002001080FF001090
:102840000C3000000A04120E554B12040906184001
:102850001043090D08437047F8B59C46930464463D
:10286000DB0CA4052343069C4E4DE405A40A234338
:10287000840088002E59FF3081303350082901D25E
:10288000002000E004200126130CB603B34201D15E
:10289000002300E002235204D60F1E434200891A8F
:1028A000B64689000F228A402E59034658330096B7
:1028B000F758764697438E403743009EF7500646BA
:1028C0002B596036B6469E591F46069B9643DB043D
:1028D0001B0F8B401E433B467746DE512B59683019
:1028E0001C58944362469204120F8A4014431C50B1
:1028F000F8BD002100022B4A401C8B00D358186001
:10290000491CC9B20429F8D37047FFB581B000242F
:10291000049800F049F8C6B203980299464320464D
:1029200000F0C8F905462046019900F0C3F90246B7
:10293000002106E088004F002B58D75FDB192B5091
:10294000491CB142F6D3641CE4B2042CE0D305B0B8
:10295000F0BDFFB581B000250A9800F025F8049E6F
:10296000C0B246432846019900F0A4F900902846D9
:10297000029900F09FF90746002409E00098A100A1
:1029800040580399C00009F01AFA61007852641C9B
:10299000B442F3DB6D1CEDB2042DDDD3D7E70000AC
:1029A0000FF000FF7CC50010401EC117090F08186A
:1029B00000118000001DC0B27047F7B50C4603211E
:1029C000890701224118D203914200D3FEE7002576
:1029D000D04ED14B35707570B570F560B06028463B
:1029E000012182009A581161401CC0B20428F8D31A
:1029F0000021012005F072F8F0700121084605F071
:102A00006DF830712046FFF7CFFFB071074602988E
:102A1000F071C04E002020363554401CC0B204284E
:102A2000FAD3002508E03946284609F0BEF9315CA2
:102A3000491C6D1C3154EDB2A542F4D3FEBDB5481E
:102A400080797047B3492031085C704770B5B14850
:102A500000211C30AF4C016060791821AF4D484314
:102A600040198268002A03D0A1696069904700E09C
:102A70000120A178002918D000281FD060791821E2
:102A800048434019C268002A02D0A1696069904792
:102A9000A078012812D1216900208847A070002861
:102AA0000CD104F0A7FF207904E0002806D004F040
:102AB000A1FFE07805F001F904F0A1FF70BD964890
:102AC00001684969C9070AD00068012181619148FC
:102AD0001C30017000689249884200D1B6E7704707
:102AE0008D4841684969C9070AD040680121816160
:102AF00088481C30417000688949884200D1A5E7A8
:102B00007047854881684969C9070AD080680121F2
:102B1000816180481C30817000688149884200D101
:102B200094E770477C48C1684969C9070AD0C06802
:102B30000121816177481C30C17000687849884262
:102B400000D183E7704770B5724C0546217814298F
:102B500000D3FEE76869C20700D0FEE7E26880188C
:102B600001229202904200D9FEE718206B4E4143A9
:102B7000881918222946FDF76BFDE168A068182224
:102B8000401821785143891908616A69296909F057
:102B9000A2F82078401CC0B220706969E2688918E8
:102BA000401EE16070BD30B40C465A49097881423C
:102BB00000DCFEE71821484358490B58002B03D08E
:102BC000204630BC1146184730BC01207047F8B58C
:102BD000504C054620780E461746A84200DCFEE71A
:102BE0006078002800D0FEE76571A7616661E07833
:102BF00005F034F818204543484839462D186A68CE
:102C000030469047A078012810D06421E07804F085
:102C1000D7FF002800D0FEE73E4900201C310860A5
:102C2000EA68002A02D03946304690470020F8BDB5
:102C3000384818214079484338494018006970479E
:102C40003448182140794843344940184069704756
:102C5000F8B5344E0546174600290DD0012917D086
:102C60000024A000305839464019FDF7DDFC641CF3
:102C7000E4B2042CF5D3F8BD0024A0003058394646
:102C8000401909F08EF8641CE4B2042CF5D3F8BDA9
:102C900000245700A00030583946401909F081F847
:102CA000641CE4B2042CF5D3F8BD1A4B9A79DB7995
:102CB0005A43CDE71B4A800010584018704770B542
:102CC000144C0125A2780646012904D002290ED011
:102CD000032919D01CE0002A01D0022A18D120793A
:102CE00004F0BCFF2661A5700120B04705E0022A70
:102CF0000ED1A570216902208847A070002807D155
:102D0000207904F0B3FF03E0012A01D10220A07072
:102D1000A07870BD4C0200007CC500104418000073
:102D2000010101018CC5001010B5FE48FFF70BFF33
:102D3000FD4CE060FB486038FFF705FF2060F94874
:102D40004838FFF700FF6060F6483038FFF7FBFEB9
:102D5000A060F4481830FFF7F6FE2061F1481838FB
:102D6000FFF7F1FE6061EF483030FFF7ECFEA06145
:102D7000EC484830FFF7E7FEE061EA486030FFF7D3
:102D8000E2FE2062E7487830FFF7DDFE6062E5484A
:102D90009030FFF7D8FEA06210BDF0B585B00546B3
:102DA000FFF746FF012180B20026C9070390DF4FDD
:102DB00040180290E87AFFF7F7FD0190A87AB40076
:102DC0004006410C0198014338590164FFF738FF70
:102DD000039940183959486039590298886039591F
:102DE0000020486439590F204865012000902A8846
:102DF00000213046019BFFF72FFD01200090014686
:102E00006A883046019BFFF727FD0820395928566C
:102E100080310860697A0120800408183959886473
:102E2000761CF6B2042EC5D30120FFF762FD012007
:102E300005B0F0BDF0B585B00446FFF7F9FE02908D
:102E4000012180B20025C9070490B84F40180390B3
:102E5000607AFFF7A9FD0190207AAE004006410C90
:102E600001980143B8590164FFF7EAFE049940183C
:102E7000B9594860B95903988860B9590020486425
:102E800001260096014622882846019BFFF7E4FCB4
:102E90000096E28801212846019BFFF7DDFC0096A1
:102EA000628802212846019BFFF7D6FC0096A28883
:102EB00003212846019BFFF7CFFC6D1CEDB2042DCA
:102EC000C6D3A17A0298491E4068FFF7BBFC02995D
:102ED00048600120FFF70DFD0120A9E7F0B585B09E
:102EE0000446FFF7A5FE0190012180B20025C90725
:102EF00004908E4F40180390E079FFF755FD029043
:102F0000A079AE004006410C02980143B859016413
:102F1000FFF796FE04994018B9594860B9590398CB
:102F20008860B95900204864012600960146A288AD
:102F30002846029BFFF790FC0096628801212846F4
:102F4000029BFFF789FC0096228802212846029BFB
:102F5000FFF782FC6D1CEDB2042DCDD3207A010465
:102F60000001014372480143019841600198617A70
:102F70004069FFF767FC019948610120FFF7B9FC40
:102F8000012055E7FEB50446FFF752FE012180B24D
:102F90000025C907029040180190E079FFF704FD71
:102FA0004708A07961494006AE00400C8959384372
:102FB0000864FFF745FE029941185C48805941605A
:102FC0005A490198895988605849002089594864AC
:102FD000012600960146A2883B462846FFF73CFCA6
:102FE000009662883B4601212846FFF735FC022601
:102FF0007F00009622883B4631462846FFF72CFC8E
:10300000009622883B46921C03212846FFF724FCA9
:103010006D1CEDB2042DC0D30120FFF76AFC012026
:10302000FEBDFEB50446FFF703FE012180B2002578
:10303000C907029040180190E079FFF7B5FC4708F6
:10304000A0793A494006AE00400C895938430864DB
:10305000FFF7F6FD02994118344880594160334921
:1030600001988959886031490020895948640126AE
:103070000096014622883B462846FFF7EDFB009666
:1030800062883B4601212846FFF7E6FB02267F00C7
:103090000096A2883B4631462846FFF7DDFB0096A6
:1030A000A2883B46921C03212846FFF7D5FB6D1CE6
:1030B000EDB2042DC0D30120FFF71BFC0120FEBDA3
:1030C000F0B587B00446FFF7B3FD0190E079FFF754
:1030D0006BFC07460198012180B2C9070690401891
:1030E000029078000390B80004900025384606212D
:1030F00048430590A0790D494006AE00400C89591F
:1031000038430864FFF79CFD069941180748805929
:10311000416006490298895988600449002089590C
:10312000486407E0ACC60010700200007CC50010C7
:103130000010000E01260096014622883B462846D4
:10314000FFF78AFB009662883B4601212846FFF77D
:1031500083FB0096A288002302212846FFF77CFB10
:103160000096A188039800230A1803212846FFF738
:1031700073FB0096A188049800230A1804212846AE
:10318000FFF76AFB0096A188059800230A1805211D
:103190002846FFF761FB0096A2883B460621284699
:1031A000FFF75AFB6D1CEDB2042DA3D32089401EFE
:1031B00001B201984068FFF745FB019948600A2079
:1031C000205EC1430198C069FFF73CFB0199C861CB
:1031D0000120FFF78EFB012007B0F0BDFEB50446CD
:1031E000C06900210180206A0D460180A06901604C
:1031F00060690160002001900090FFF723FC064603
:10320000FFF71DFC0746732109010098FFF752FDE7
:103210006F4379004118002D06D0022D18D0012DE2
:103220002AD0226A002030E0019A002092009446C1
:103230000BE042008700E3688A5E6744DA51676901
:103240003B689A18401CC0B23A60B042F1D31EE00D
:10325000019A0020920094460BE042008700236907
:103260008A5E6744DA51A7693B689A18401CC0B26D
:103270003A60B042F1D30AE0E269D3E7470013882D
:10328000CF5BDB19401C1380C0B2B042F6D301986B
:10329000801900B201900098401CC0B20090042830
:1032A000ABD36D1CEDB2042DA4D30120FEBDF0B54F
:1032B00085B00446FFF7BCFC0546012180B200261C
:1032C000C907039040180290207DFFF76DFB019025
:1032D000E07CB7004006410C01980143FE48C0590C
:1032E0000164FFF7ADFC03994118FB48C0594160E8
:1032F000F9490298C9598860F7490020C9594864BA
:1033000001270097014622883046019BFFF7A4FA67
:103310000097628801213046019BFFF79DFA0097D4
:10332000A28802213046019BFFF796FA0097E288B7
:1033300003213046019BFFF78FFA00972289042171
:103340003046019BFFF788FA0097628905213046D5
:10335000019BFFF781FA0097A28906213046019B65
:10336000FFF77AFA761CF6B2042EADD30F21615620
:103370006868FFF767FA68600E2020564142E868E7
:10338000FFF760FAE860112161562869FFF75AFAE1
:10339000286110216156A869FFF754FAA86112202C
:1033A00020564142286AFFF74DFA28620120FFF7B4
:1033B000A0FA01203CE5F0B5054685B0002001905B
:1033C000FFF736FC0146687D0022002808D0E86837
:1033D00024234380472342600370082343700193F2
:1033E000BE4808608F208005002427468EB2086101
:1033F00028190290017A002939D0287DB64A400662
:10340000400C0143A000135819641358311D596032
:103410000121C9071058711881600021A000AE4A2F
:103420000390105841640120009060002B5A2A8AB2
:103430002046FFF711FA012000900198E96838183A
:103440000A186B8A01212046FFF706FA0298A24A61
:10345000007AFF214000C01987B20398023110584A
:103460000160641CE4B2042CC2D30120E0E4FF221A
:1034700002329949A0000B581A6432460B580832A0
:103480005A60974A0858B2188260C6E7FEB50446EB
:103490000E46FFF7CDFB2169B160E168716091498B
:1034A000016091494160257A0821904A904B022D94
:1034B00004D08260227A0C21012A01D04350091DD8
:1034C00041180122002580B2D2078018019088B2ED
:1034D0000290E079FFF768FA70550346A0797E4ABA
:1034E0004006410C1943A8001758396417580021A9
:1034F000796417580199B960105802994160012701
:103500000097228800212846FFF7A6F900976288D5
:10351000002301212846FFF79FF90097A288002386
:1035200002212846FFF798F96D1CEDB2042DD0D387
:103530000120FFF7DEF90120FEBDF8B50646007A4E
:103540000F4602281BD06B4D002471882046FFF7E0
:10355000B1FB024600203B5D06E04100515EA942FE
:1035600000DA0D46401CC0B28342F6D8641CE4B2B7
:10357000042CEAD378680580307A012819D05D4D93
:103580006D420024B1882046FFF794FB02460020DC
:103590003B5D06E04100515EA94200DD0D46401C46
:1035A000C0B28342F6D8641CE4B2042CEAD3B868F3
:1035B00005800120F8BDF0B50025817B2B462F4604
:1035C0008E4626E00024067B21462246B44612E0C1
:1035D000066976578E4008313243C9B2202907D395
:1035E00041699E00895991420ED15B1C00210A4617
:1035F0006D1C641CE4B2A445EAD8002907D04169D7
:103600009C000959914201D00020F0BD5B1C7F1C39
:10361000FFB2BE45D6D80120F0BD00B5FFF7CBFF05
:10362000002800D0012000BDF0B587B004460D464B
:10363000FFF7FEFA02900120687200272F73207BAB
:10364000C01C8008E872A17B607B08F0AEFBA8720A
:10365000A17B4843617B884205D0081A2872A87A6A
:10366000401CA87200E02F720298002680B2011D53
:1036700003910121C907401801960490E07BFFF7F0
:1036800093F9A91905910871A85500201249B700AE
:10369000C9594864E088009021680198A3880A18F5
:1036A00000213046FFF7D8F8207B01283BD0A97ACB
:1036B000228941434806A95D400C08430649C9597F
:1036C0000864012000900146AB5D3046FFF7C4F866
:1036D00001480399C2590FE07CC500100010C023B7
:1036E000040000800010000C0020000C10100021CD
:1036F00020204021FF7F00005160C0590499816063
:103700000598761C0079F6B241000198081880B23D
:103710000190042EB2D30298F74901600120FFF70F
:10372000E8F8012058E5617B62894906A85D490CEB
:10373000C3E7F8B506460C46174600250120009061
:10374000607BA17B7B5D401A8019584361894000F2
:103750004218E8B20121FFF77FF86D1C042DEDD36C
:10376000FA7AE64B1046724380188646002110E034
:10377000950000208F00AC46803765696646AD59DC
:1037800086009E59F551401C0428F6D3521C491C52
:10379000C9B27245ECD3F8BDF8B506460C461746DB
:1037A0000025012000907B5DA17B18464B43618979
:1037B000704340000A18E8B20121FFF74DF86D1C74
:1037C000042DEED3FA7ACD4910467243801886460E
:1037D000002310E0950000209F00AC46803765690B
:1037E0006646AD5986008E59F551401C0428F6D323
:1037F000521C5B1CDBB27245ECD3F8BDFEB506462D
:103800000C46FFF715FA0746307B032201287DD0CE
:10381000607A0128207B1DD0401CC0B22073B17B90
:10382000884273D222463146FFF783FFBCB201269D
:103830000020B24DF607FF270237C10061188A1930
:1038400081006B589A6069580F60401CC0B2042810
:10385000F3D37FE0401CC0B22073B37B98423DD8C5
:10386000012833D1207A0028A07A01D0401EC0B2AE
:1038700000254006400C0190B8B202900120009053
:10388000635D307B3289434300212846FEF7E4FF25
:10389000615D0198994A0143A80012581164974943
:1038A00018220958B2564A64317B954B625D09046F
:1038B00019430A43E9007A50029A51188F4A091DA8
:1038C000105841606D1CEDB2042DD7D3207B2246E9
:1038D000401EC0B23146FFF75FFF28E0207A002883
:1038E0003AD000202073022060720025605D834979
:1038F000FF300130AA0089580864207B22463146F7
:10390000FFF717FF01200090635D00E024E0307BAB
:10391000A17A5843491E484331894000421800218A
:103920002846FEF799FF6D1CEDB2042DDED3BCB224
:1039300001260020714DF607FF270237C1006118EC
:103940008A1981006B589A6069580F60401CC0B298
:103950000428F3D30020FEBD62720120FEBDF0B545
:1039600087B005460C46FFF763F9029001206072AC
:1039700000272773A87BC01C8008E072297CE87BA5
:1039800008F013FAA072297C4843E97B884205D0ED
:10399000081A2072A07A401CA07200E027720298D8
:1039A000002680B2011D03910121C907401801962C
:1039B0000490687CFEF7F8FFA11905910871A055E5
:1039C00000204E49B700C9594864E888009029682A
:1039D0000198AB880A1800213046FEF73DFFA87B0E
:1039E0002A89012829D0A17A41434806A15D400CCB
:1039F00008434249C9590864012000900146A35D6B
:103A00003046FEF729FF3D480399C2595160C0591D
:103A1000049981600598761C0079F6B241000198FE
:103A2000081880B20190042EC3D302983249016075
:103A30000120FEF75EFF012074E6E97BA05D4906E8
:103A4000490CD5E7F7B5002582B00C46164601278C
:103A50000097735DA289E8B20121FEF7FDFE6D1C9F
:103A6000042DF5D3F27A029910464A43801886460F
:103A70000023224910E0950000209F00AC468037CB
:103A8000A5696646AD5986008E59F551401C04283B
:103A9000F6D3521C5B1CDBB27245ECD38AE4F8B55A
:103AA0000C4605460988FFF705F90090618828460D
:103AB000FFF700F98646002332E0A0885843410012
:103AC00000980E18E0885843410070460A180A20F2
:103AD0002056002802D0844600211CE0002106E088
:103AE0004D00575B705B3818491C5053C9B2607A5F
:103AF0008842F5D812E000000010C0237CC50010F9
:103B00000010402F4D00505F775FC0196746384165
:103B1000491C5053C9B2607A8842F3D85B1CDBB2AF
:103B2000207A9842C9D8F8BDF7B5002582B00C4676
:103B3000164601270097735DA289E8B20121FEF7BE
:103B40008BFE6D1C042DF5D3F27A029910464A4380
:103B5000801886460023964910E0950000209F00BB
:103B6000AC468037A5696646AD5986008E59F55139
:103B7000401C0428F6D3521C5B1CDBB27245ECD30C
:103B800018E4FEB505460C46FFF752F80746A87B39
:103B9000012843D0607A01285AD001206946087272
:103BA000687F88720026A88969460880E87B297C9E
:103BB000401A217B4018A15D4843698940004018A4
:103BC0006946488000208880C880A0190079487222
:103BD0003046FFF764FF761CF6B2042EE3D3207B59
:103BE000401CC0B22073297C884230D2224629462C
:103BF000FFF728FFBCB2012600206D4DF607FF2716
:103C00000237C10061188A1981006B589A6069589F
:103C10000F60401CC0B20428F3D3C2E02889694673
:103C2000088068894880E87B0872687F8872002570
:103C3000605D69468880605DC8806019007948725F
:103C40002846FFF72CFF6D1CEDB2042DF0D3AAE03F
:103C5000207A0028A07A01D0401EC0B2217B491CE6
:103C6000C9B22173022920D3A9896A461180107232
:103C7000687F90720026217BA05D891E4843698978
:103C80004000401869464880A05D8880A05D297C7E
:103C900048436946C880A019007948723046FFF74A
:103CA000FEFE761CF6B2042EE5D3207B297C8842EA
:103CB0003DD8012833D1207A0028A07A01D0401EB7
:103CC000C0B200264006400C0190B8B2029001201C
:103CD0000090A35DA87B2A89434300213046FEF76C
:103CE000BBFDA15D0198324A0143B0001258116436
:103CF0002F491C220958AA564A64A97B2D4BA25D64
:103D0000090419430A43F1007A50029A5118284ACB
:103D1000091D10584160761CF6B2042ED7D3207BC3
:103D20002246401EC0B22946FFF7FEFE26E0207A5A
:103D3000002838D0081A2073022060720026A05D87
:103D40001B49FF300130B20089580864207B2246AD
:103D50002946FFF777FE01200090A35DA87BA17A9A
:103D60005843491E484329894000421800213046E3
:103D7000FEF772FD761CF6B2042EE0D3BCB201262B
:103D800000200B4DF607FF270237C10061188A1982
:103D900081006B589A6069580F60401CC0B20428BB
:103DA000F3D30020FEBD032060720120FEBD0000A1
:103DB0007CC500100010402F7047FFB587B0044647
:103DC00016461F46FE48FF4A007803AB4100505A92
:103DD000019002908818808806900490E1B26A46AB
:103DE000F94803F046FCE1B2F74803F0E5FB059023
:103DF000E1B2F54803F076FC3868E1B203B230680E
:103E000002B2F14803F05EFCF0490546884200DD4D
:103E10000D461198002806D0E1B2EB4803F0C7F92F
:103E20004019192105E0E1B2E74803F0C0F9401953
:103E3000C82107F0C4FF451C019814214843A8423B
:103E400000DA0546089869464007E148085E17D43D
:103E5000019948433168694340180199491907F0AD
:103E6000AEFF044669460C20085E02994843396853
:103E7000694340180299491907F0A1FF346015E021
:103E8000069948433168614340180699091907F0BB
:103E900096FF306069460C20085E049948433968F3
:103EA000614340180499091907F089FF3860109898
:103EB0000188059806F02DFE1099088000200BB0AF
:103EC000F0BDF7B5C34884B0C07F002802D0002001
:103ED00007B0F0BD002A02D00224642001E00124D2
:103EE0000020BD49BE4DCB7D0393097E081800B26A
:103EF0000190BA48AA8D017810466043009207F0FD
:103F00005EFF0646B7480178E88D0290604307F0EF
:103F100056FF07460498B0490068009A04B2059815
:103F2000039B006805B2192008565108002B2EDDAE
:103F3000B44204DAA01B5843801180190EE0121B12
:103F4000B24206DA911B5943891100988919401A27
:103F500004E00A1B504307F032FF001904B29E49E7
:103F60001A268E579E490198C98D4908009100284C
:103F700024DD38460C2148430A2107F020FFA842DF
:103F80000BDD019A291A51438911081821E0B44226
:103F9000E5DB921BA242DCDAE1E70298401BB84263
:103FA00007DAC21B0198029942439011C019081AFE
:103FB0000FE000980099401B704307E0BD4209DB09
:103FC0000298C01BA84205DB481B704307F0F7FEB0
:103FD000401905B2049804600598056077E7FFB5BD
:103FE00087B00D4614461E46119F079808F084F8C6
:103FF0000090284608F080F80190204608F07CF8F0
:104000000290304608F078F80390109808F074F8A1
:104010000490384608F070F80590BD4210DD109805
:10402000001B08F069F80546B81B08F065F829463A
:1040300007F068FF0746009908F0B4F901990FE00E
:104040000798201A08F058F80746701B08F054F833
:10405000394607F057FF0746049908F0A3F9059978
:1040600008F05AF906463846029908F09BF9039978
:1040700008F0F0F905467800000E0ED00121384610
:1040800008F046F804462946304608F0EFF9214684
:1040900007F038FF07F0E6FF11E720460FE7F0B51D
:1040A00005460E4685B01446981B08F025F8029088
:1040B00001900A992846684349430746C81B08F0FF
:1040C0001BF800900B98801B08F016F80390204610
:1040D0006043381A08F010F80146039808F062F9B6
:1040E00007460099019808F05DF9394608F014F97F
:1040F00000900B98301A07F0FFFF0190601B07F04B
:10410000FBFF06460A98029F401B07F0F5FF014699
:10411000384608F047F905463146019808F042F95B
:10412000294608F0F9F8012107F0F2FF01464000A6
:10413000000E06D0009807F0E5FE07F093FF05B0EB
:10414000F0BD2046FBE7F0B505AC70CC002200289E
:1041500004D1275E002F00DA22801A801F4F3F789B
:104160007F1EB84205D10020185E002800DA1A80B0
:104170002280002904D1705E002800DA32802A8073
:1041800018480078401C814205D10020285E002894
:1041900000DA2A803280F0BDF0B594460A4A002544
:1041A000114F54682B46FE56CA5C36187600A65F3F
:1041B0005B1C564375195BB2042BF4DB420015E01F
:1041C0000A02000074310000741C00008813000013
:1041D0000000000020180000E03000007AC9001044
:1041E000401A00007BC900106C030000A25E0B792E
:1041F0005A4355190523FE18203E1F22B2561618A1
:104200007600CA5CA65F5B1C564375195BB2092B2E
:10421000F1DB6046054128B2F0BDFFB589B0064626
:104220000D461F46002403AA04A900B206F01AFB9B
:10423000002D22D0FF4D012303210422EB566956A5
:10424000AA569B19891992190627EF57F848BD19E4
:1042500040682F041B047500DB0B1204455FC35A32
:104260006E46B382D20B89B2825A32834900415AD8
:10427000B183F90B405A308444E07A7A39463046AB
:10428000FFF78AFF0546EB48012141567A7A8819E3
:1042900080B23946FFF780FF014668468182E548D3
:1042A000062141567A7A881980B23946FFF774FFA1
:1042B000014668460184DF48032141567A7A88190D
:1042C00080B23946FFF768FF014668468183D948C6
:1042D000042141567A7A881980B23946FFF75CFF8B
:1042E00001466846018308AA05A906A86E4607C6C6
:1042F0006846007B07AB41B26846007C2A4640B264
:10430000FFF721FF0B98C00759D06A461C21515E68
:1043100018202B46105E994203DD0B46814200DADD
:104320000346C64AC44E127852080292994210D1EE
:1043300083420ED16846007C810089194A6812992F
:104340000A60029906F09CFA002800D001200DB006
:10435000F0BDBB4A0746927A6846007C002A0BD023
:104360008000844680198268019700924268604606
:104370003058FFF794FE0AE0800084468019826876
:1043800001970092426860463058FFF728FE0028E7
:1043900000DA0020AB490978890072588919496808
:1043A00051184A10824200DC481012990860684691
:1043B000007C029906F064FA002800D001240B98D2
:1043C000800755D568461421415E20262B46865F1E
:1043D000994203DD0B46B14200DA33469948964DC7
:1043E0000078C0354008029099420FD1B3420DD1F8
:1043F0006846017B88004019426813980260029861
:1044000006F03EFA0028A2D00220A0E78C48807A6D
:1044100000286846007B09D0800042199768009701
:10442000019652682858FFF73AFE08E080004219CA
:1044300097680097019652682858FFF7D0FD00282A
:1044400000DA00207D49097889006A5849194968CD
:1044500051184A10824200DC4810139908606846DF
:10446000017B029806F00CFA002801D0A41C24B2AB
:1044700020466CE7FEB50C460746014615466C48DB
:1044800003F0A0F806463946694803F083F841076F
:104490006D480195009428D530214E433618F08898
:1044A0006A4B01220021FFF7B8FE002801DB01283A
:1044B00007D1019500940122F088644B1146FFF763
:1044C000ACFE624B01950094F0880A330222002171
:1044D000FFF7A3FE002801DB022821D15B4B0195E9
:1044E00000940A33F088022217E030214E43574BE4
:1044F0003618F0880A3B03220021FFF78EFE0028C1
:1045000005DB012803D0022801D0032808D14F4B36
:1045100001950094F0880A3B03220121FFF77DFEFC
:10452000FEBDF0B5BBB0012000273890FEF740F982
:10453000841C0021319001703198417068460172ED
:1045400041724348399043483A904348239133900D
:104550000020349035903648239903F00BF800285A
:104560007CD06846017A36488078814276D23048DD
:10457000239903F00FF805462D48239903F004F81A
:104580000646E80642D4042E40D0032E3ED02848EA
:10459000239903F017F83290680707D43298302136
:1045A0004843294940188189490762D521AA22A98F
:1045B0002398FFF75FFF019032983021484322494A
:1045C000062340180090C35E37AA36A9184606F0A5
:1045D00049F9019800287DDA00988089400747D57D
:1045E00030A8007E14498000401833994068497E05
:1045F0000841229030A8007F0F498000C031401848
:1046000033994068897E0841219039E00848239910
:1046100002F0C6FF401222900548239902F0C6FF1F
:10462000401221900248239902F0C6FF30A916E0FB
:10463000741C00006C03000054C700107BC90010FC
:10464000103000007AC900109011000066C90010F7
:104650004018000000310000601A000044E20880A9
:10466000042E04D101220321FE4806F033FBDDE0D5
:1046700000982821415E22912A21415E219108461D
:1046800003B22298239902B2F74802F0A1FF002258
:1046900021A922A8FFF715FC2298002801DA0020A2
:1046A0002290F249229A888D904201DC401E22908D
:1046B0002198002801DA00202190EC482199C08D32
:1046C000884201DC401E21903998007800280DD0E6
:1046D000012800E001E00ED022E03398417E2298CC
:1046E000084122903398817E21988CE76846007AB1
:1046F000002804D014E06846007A022810D22198DD
:1047000001AB01B222986A4600B206F0CFF86A46C1
:1047100004210020515E105E06F087FA30AA108056
:10472000A8077DD54820054265D021AB22AACE48F6
:10473000239902F0B1FFCE48C07F002844D1CD4874
:104740000178CD48C08807F030FB2299884204DD0B
:10475000002221A922A8FFF7B4FBC649C648097860
:10476000C0884A1E504307F02AFB2299884204DA87
:10477000002221A922A8FFF7A4FB37212198490193
:10478000884210DD40202A46024021A922A8FFF7D6
:1047900098FBB84840784100B748008907F005FB0E
:1047A000219940182190A0280EDA012221A922A8DF
:1047B000FFF787FBAF4840784100AF48008907F01A
:1047C000F4FA2199081A21902298002801DA002091
:1047D0002290A649229A888D904201DC401E2290A8
:1047E0002198002801DA00202190C88D2199884263
:1047F00001DC401E219030A80088009021980721FC
:1048000003B22298019102B29748239902F003FF64
:1048100001220221934806F05DFA05F054F900E008
:1048200004E0002802D0329805F053F900202490CB
:10483000042E01D0052E02D1102001272490A807B4
:1048400003D5249E0420064320E0012130A80191D5
:10485000009021AB22AA29462398FFF7AEFA2198AF
:10486000239903B2229802B27F4802F0F3FE014678
:10487000249E082006438148814A00784000801821
:1048800000894043884203DC280601D401271CE04C
:104890003A98807A00280CD002280AD072482399CE
:1048A00002F08AFE014630A8008806F0EFF90028E1
:1048B00000D1012730A80088042100900023019135
:1048C0001A466948239902F0A6FE2198239903B25B
:1048D000229802B2644802F0BDFE3898012810D137
:1048E00028060ED528070CD401AB6A465E482399EA
:1048F00002F0BFFE69460020085E22900420085E98
:104900002190329D302045435E48405D00280AD00A
:104910005C48281881780F2905D04178002902D0F9
:10492000C0781B2836D1FF21C131574807F03BFA28
:10493000564824A90160564981601E21C182142174
:104940000183012000904F480121281801904379EC
:1049500002794E4800F0AFFC4A48405D002803D081
:10496000019880780F2806D120A9C87C497C401A7C
:10497000401CC0B2359001984078002803D00198BF
:10498000C0781B2806D120A9887C097C401A401CCD
:10499000C0B2349030A8008800902198072103B25B
:1049A0002298019102B23048239902F034FE39482E
:1049B0008178002935D06A46127A0C20424302A839
:1049C0001218229951806A46127A0C235A431218FF
:1049D0002199918030AA13886A46117A0C2251439A
:1049E0000918CB806A46127A0C235A43121834995C
:1049F000118102210E436A46117A01275943091891
:104A00008E72127A35995A431218D1726A46127A06
:104A100023995A43101801736A46107A401C107289
:104A20005DE0710702D5C179002909D0F10602D5F0
:104A3000417A002904D0310751D5007A00284ED19F
:104A40006946097A0C20414302A80918229A4A8033
:104A50006946097A0C2359430918219A8A8030A99A
:104A60000A8819E0F07F0040741C0000401A000022
:104A700020180000F4310000103000000A0200008D
:104A80007431000090110000E0150040241A00006D
:104A9000003F0040D43000006946097A59430918A4
:104AA000CA806946097A349A594309180A81022151
:104AB0000E436946097A0C22514309188E726946E1
:104AC000097A359A59430918CA726946097A239AAC
:104AD0005943081802736946087A401C0872082274
:104AE0002448239902F0E5FD2398401CC0B223908E
:104AF0000C2800D22CE500250FE00C20294641436C
:104B000002A8081802260421865F031D821C415E4C
:104B1000304605F0CBFE6D1CEDB26846007AA84227
:104B2000EBD8002F20D000211AE00C200A46424387
:104B300002A810184288228082886280C288A280DF
:104B40000289A271827AE271C27A2272007B60725B
:104B50003198319A00780A34401C491C1070C9B24F
:104B60006846007A8842E0D831990020085E3BB060
:104B7000F0BD0000741C000010B5002802D16420B4
:104B800005F0D1FB10BD0000FFB58BB0159CE1070F
:104B9000C90F0919490008180930800880000490DD
:104BA0000C98081809308008800006908818093091
:104BB000800880000890C81809308008800005909F
:104BC000F9486B4601780078C907C90F0818801C9E
:104BD000C1B201201880801E588099804842D88038
:104BE000481C1881481E5881CA439A814042D88186
:104BF0000C98002818D0002213E010464843049B6C
:104C00004000C518069BC0180790002005E043002F
:104C1000079FEE5A401CFE52C0B2A042F7D3521C6E
:104C2000D2B214988242E8D3189800282BD00020E2
:104C300084461E2322E0604648434200059810182F
:104C40008646002214E007985500465F1798864272
:104C50000CDD0020754406E047006E46F65F7600E6
:104C6000401CAB53C0B2169EB042F5D3521CD2B218
:104C7000A242E8D36046401CC0B2844614988445E2
:104C8000D9D30FB0F0BD002338E00C9800281846A7
:104C900003D048434200069802E04843420004988B
:104CA0001018844618464843089A40008218079214
:104CB000059A8018002209901CE055006046465F66
:104CC0001798864214DD099E0020AE190A96079EA9
:104CD000AD19AE4609E047006D46ED5F76466D00C2
:104CE0000A9F765B401C7E53C0B2169DA842F2D349
:104CF000521CD2B2A242E0D35B1CDBB214988342B6
:104D0000C3D3BEE70022002801D0102800D1012221
:104D1000002901D01C2900D1521C022A01D00020F8
:104D2000704701207047002807D00F2805D00029C0
:104D300003D01B2901D00020704701207047FFB528
:104D40008CB01599169CCB07DB0F59184900081831
:104D500009308008800007900D98081809308008F5
:104D60008000089088180930800880000B908E48D9
:104D70006A4601780078C907C90F0818801CC1B2BB
:104D800001201080801E5080918048428C46D08047
:104D9000491C11816046401E50816146C943918182
:104DA0004042D0810D98002817D0002112E06046C3
:104DB0004843079A40008518089A8618002004E0A6
:104DC0004200AB5A401CB352C0B2159A9042F7D37E
:104DD000491CC9B20F988142E9D300206E46049065
:104DE00064E00D9861460028049803D048434100D0
:104DF000089802E04843410007980D18049861465E
:104E0000484341000B9808180690002046E0059999
:104E100000204B00E95E0A918E465A19014609921C
:104E200009E04F00F75F099A7F00D25F724500DB0F
:104E30009646491CC9B2A142F3D3179A002196465F
:104E40000AE04F00F75F099A7F00D25F724501DBED
:104E5000401CC0B2491CC9B2A142F2D3A04201D148
:104E60000A9812E06108491C814204D1059904980E
:104E7000FFF759FF07E0A108491C814208D10599B5
:104E80000498FFF73FFFE95A48430699C85202E0E9
:104E900006980021C1520598401CC0B21599059092
:104EA0008842B4D30498401CC0B204900F99884241
:104EB00097D310B0F0BDFFB5DA07D20FD218520069
:104EC000101809308008800086465018093087087D
:104ED0003548BF0001780078C907C90F0818801C41
:104EE000C0B28446002110E060464843400072464C
:104EF0008518C619002004E04200AC5A401CB45288
:104F0000C0B29842F8D3491CC9B202988142EBD38F
:104F1000FFBDF8B52449254B08780A78C007C00FB3
:104F200080184200D21892089200801C0092C6B2EB
:104F30002048097800788E4641001F481C4A08180E
:104F40001778408A7743844600222AE0009851006F
:104F5000081800210B4605E05C00045F002C00DD12
:104F600061189B19BB42F7DB614518DB114B124CF2
:104F70001B785D002D19ED884D43E118897B0D41AB
:104F800000210AE04B00C45E002C05DDAC4201DBD1
:104F9000641B00E00024C4528919B942F2DB521CA0
:104FA000D2B27245D2D3F8BD7BC9001099480040F7
:104FB0007AC900100A0200002C300000F0B55D49EB
:104FC00085B008780A78C007C00F80185A4A12784E
:104FD00053005A4A9B1816229A5E0092584B420080
:104FE000D21892089200801CC0B2039055480192DA
:104FF000007802900E78002532E003980022684382
:1050000041000198009B0C185B105B421046114652
:105010009C460BE05300E35E009FBB4204DA9C45D4
:1050200002DAC018491C09B2521C12B2B242F1DBBA
:1050300006F0C5FE4049414B09784A00D218528912
:1050400042435818007C0241002005E04100635AA9
:105050009B1A401C635200B2B042F7DB6D1C2DB2AC
:1050600002988542C9DB05B0F0BD70B5FFF7A6FF19
:10507000FFF74FFF344802F05BFB334802F0AEFB12
:1050800005462C48314C03782E48214602782C489E
:105090000938FFF710FF2A460321204602F071FC71
:1050A0002B482C4C00782C4D00280AD000F014F826
:1050B0000A20A076E0764B20C0002081608102208B
:1050C00008E00420A0760520E076FF205F302081F4
:1050D00060811420287270BDF0B5174C1D4D2078EA
:1050E000144940004019808885B009780A3800B218
:1050F0000290042600911348144F019603783A4613
:1051000016491046FFF71BFE207800214000421987
:10511000905F084A3B461278019203900491094837
:1051200002960078064A0090093A0C491846FFF7A3
:105130002BFD98E77BC900100A0200002C3000000C
:10514000994800407AC9001090210000D022004008
:10515000210200008430000000300000306C00406C
:1051600010B5F748F549F74B016019781A78C90767
:10517000C90F8918F44AF54C8A18920892004260C7
:105180008A1C49000919890802818900C1600282CC
:10519000EF494161EF498161EF490162EF49C16126
:1051A000EF49CA8882850989C185EE480178E448BB
:1051B000203041751978817504214176817605F09A
:1051C0009FFD10BDF0B5E84F002384465C1E3D787E
:1051D0007E7817E0E818C000C019407988420FD1E6
:1051E000E81844B2E000C0190623C35E934200DA17
:1051F000C280037A5B1C037243899B18438103E0DE
:105200005B1CDBB29E42E5D8002C1DDAB8781E2864
:105210001AD2C000C019C280BB786046DB00DB191F
:105220001871B878C000C0194171B9780120C9005F
:10523000C9190872B878C000C01942817878401C3A
:105240007870B878401CB870F0BD30B5C48A036877
:105250004C43A41824B2DC800025ED431D810125B8
:105260009D81997019701971DA705A705A7180683D
:105270006400005FBD4C8900091958614968044603
:105280004C43E1179C61D9619100B94A891849687A
:105290004843C117596218625D810020203318739A
:1052A00030BD0022B049012803D0887808704A70C8
:1052B00070470A70FBE7FFB5044696B000200890DF
:1052C000E068164602702069012503701798C0B285
:1052D0000C90A18A62687143511858540C98FFF7DA
:1052E000E0FF1A4631462046FFF7AFFF802D01DB75
:1052F0000895E7E0E16808981623095C0A9121699E
:10530000095C0B91E35E0A99184648430B994000EB
:1053100049004018A168A28A40180A99666851435A
:1053200076180B995B0071180026865F0996089E17
:10533000C71A761C36B20896861E1B180296561897
:105340000E960097BC46BF1E0497801C9F1E0390BC
:105350000193881A4E1E9B1C0793431E0F960D90B7
:105360000597491C67461193BF1C9319401C139065
:10537000501814901091002006971293064615902D
:10538000B7000DA8C0590178002910D017988142A4
:105390000DD06846C0590022825E09988242179853
:1053A00002DDC0B2099A00E0C0B2FFF70BFF1F9800
:1053B00000280ED06846C0590021415E09988142FC
:1053C00007DD0DA8C05901781798814201D001204E
:1053D0001590761C76B2082ED2DB1598002871D174
:1053E00082000DA989580B78002B67D16B469B581A
:1053F00000229E469A5E1823E35E9A425EDB099B7A
:105400009A425BDC0C9A0A705A4976460A5C0A9901
:105410005118E26849B25155574A135C0B9A9A18D1
:1054200052B2236994465A5527680023F35E7A697D
:105430006D1CD2187A614D4B8A00D2185368002235
:10544000B25E2DB25343226815929769DE17D26976
:10545000DB195641159AD66193616246444B92001E
:10546000D218536872460026965F226873439646A8
:10547000176ADE17526ADB1956417246566213628A
:10548000226853895B1C538122680223D3568B42C6
:1054900000DA917022680023D3568B4200DD117030
:1054A00021680323CB566246634500DACA7021683F
:1054B0000123CB566246634500DD4A70401C40B272
:1054C00008288DDB0898A84200D00FE71AB0F0BD7D
:1054D000F0B50446008A87B0C0B206902089002645
:1054E000C1B221480391867020462030427D04924B
:1054F000807D0590A0690190606902901248921C1D
:1055000035465143801F06F04EFC4021029806F0BC
:1055100048FC0020302141430C312268401CC0B2BD
:1055200055521428F6D300279DE002990198019165
:105530000290402106F035FC00258FE0901100001C
:10554000401A00007BC90010E6150040D922004037
:105550001C1000005C100000C8160000501700006E
:10556000103000007AC900109C10000054C70010D1
:1055700014C800101002000018020000069869000C
:10558000784340004018E168122241180020085E6C
:10559000A25E824260DC019A521900925278002A7F
:1055A0005AD1069A1E23520096468A1A9446203AE9
:1055B000D35E834250DC634600229A5E82424BDC1B
:1055C0001A460223D35E834246DC0A46203A1E2353
:1055D000D35E834240DC02228A5E82423CDC009B36
:1055E00001229A70724652189446203A1E23D35EC6
:1055F000834231DC029B01225A557346C95E8142C7
:105600002ADC0299634649194A7002229A5E824254
:1056100022DC01228A70142E1CD2302021687043B3
:105620000918FE48761C016061684160E16881608C
:10563000E169C160216A0161039981820699C18291
:10564000618E018300922B463A4671B2FFF733FE1A
:10565000F6B201E0049F059D6D1CEDB205988542F0
:105660008CD37F1CFFB20498874200D25DE730469E
:1056700007B0F0BD30B5302413686043C01806246D
:10568000045FD2686300D55E4B00D35EAB4202DBA1
:105690000481C18030BD0824045F002C03DB64005A
:1056A000125F9342F6DD018130BDF7B584460C46AA
:1056B000029830250368614630206C434143A6467A
:1056C000CA18E41850696569401950619069A66963
:1056D000D569E76986197D419661D561106A266AA8
:1056E000556A676A86197D4116625562D089E589D7
:1056F0004019D081108A258A401910825089658905
:10570000401950819089A5892843154690812035FC
:10571000287B401C28730020A081022002251056FF
:105720006557A84200DA9570032503205557205687
:10573000854200DAD07070465D561856854200DD0D
:1057400058540121012051562056814200DD5070ED
:1057500006216046615EC0B2029AFFF78BFF082106
:10576000615E002904DB6046C0B2029AFFF782FF47
:10577000FEBDF8B50C46D9001546A94B079ACF18BF
:10578000002A26D0024669B260B2FFF78EFF069863
:10579000A34E401EC0B20690B0780822C000811906
:1057A000091F381D06F097FAB078401EB07000202F
:1057B0000BE0C10089190A79AA4200D10C714A791B
:1057C000AA4200D14C71401C40B2B1788142F0DC59
:1057D0001CE00668924808228078C10090480918A9
:1057E000091F381D06F077FA8D488D498078401ED4
:1057F000887030204443A019828904210A438281A1
:1058000030204543A81982890A4382810698F8BD51
:10581000F7B584B005F082FA0498814A0468002044
:1058200009E0C10089180B795B1E0B714B795B1E77
:10583000401C4B71C0B291788142F2D889E0017965
:105840003022514309194A894179302359430919B2
:105850004989002651180422825689B294460522AD
:105860008256012596462FE06D48EA00101802790D
:10587000302300925A4312195389427930270192FA
:105880007A43121952899A1892B28A4208D911465B
:10589000042282562E46944605228256964611E0F0
:1058A0008A420FD1009A5E4F62450BD1019A724530
:1058B00008D10622825EF300D8190623C35E9A42FD
:1058C00000DAC2806D1CEDB255488278AA42CBD86E
:1058D000F1000D1804270522EF57AA560292297AE3
:1058E00097420CD1064680780822C0008119091F12
:1058F000281D06F0F0F9B078401EB07029E06889E4
:1059000006F053FA03B20620285E00900298302178
:1059100048430119302078430019049A05F012FB1E
:1059200040490978012907D0C10605D4410601D5AF
:10593000002002E0C00700D00120C0B2019005990C
:1059400002980091C1B2FAB233460498FFF711FFF2
:10595000059033488178002900D070E705F069FB95
:105960000025059E12E0302070430719B889C00752
:1059700008D109E03020684300198089C0070CD0A5
:105980006D1C6DB2142DF5DB761CF6B2142EEAD325
:1059900000200699064608604BE030206843001955
:1059A00030223946FAF754FE00206D1CB8816DB2E2
:1059B000EAE7302070430519A889C00737D06A6923
:1059C0000092D317E969A86906F04DF9049F2037C2
:1059D0007A7E06F0E2F800B228850190009A696AA2
:1059E000D317286A06F03FF9BA7E06F0D6F8688524
:1059F0000498019A818D0020491E04F074FF2885C7
:105A000004982A22C18DAA5E491E002004F06BFF73
:105A10006885069801686869814205E0241A0000DB
:105A20009C1000002102000001DA06990860761C33
:105A3000F6B205988642BCD31AE6FFB5FFB084469D
:105A400098B014460020302103464B436146591854
:105A50008A89D20720D04D89460068AA95538600CE
:105A600054AA4D699551C20004AD8E69AD18CF6935
:105A7000C0C52CAF0D6ABA184E6A60C28D7882AA72
:105A80001554CD788CAA15546246D35C87AA13545A
:105A90004A7891A90A5403E00021430068AAD15230
:105AA000401CC0B21428CED39899002089788E4625
:105AB0000CE09899C20051184A7972AB521E1A54E0
:105AC00009797AAA491E1154401CC0B28645F0D803
:105AD00000216EE09898CA0010180622825E9A98FB
:105AE000824264DB72AD7AAB685C5A5C90425ED0F5
:105AF000470068ADBC46EE5B5300EF5AF6196746A7
:105B0000EE530026EE5254AB87009600DD599E59A5
:105B1000AD19DD51C500AC4604AB63441F685E6837
:105B2000D30004AD0093EB181D685B687F195E41DC
:105B300004AB63441F605E602CAB63441F685E6807
:105B4000009B2CADEB181D685B687F195E412CAB88
:105B500063441F605E6082AB1D5C9E5CB54200D2F8
:105B60001E548CAE355CB35C9D4200D2335487AE7C
:105B7000355CB35C9D4200D9335491AD2B5CAA5C7B
:105B8000934200D92A54481CC0B272AA7AAE0CE0E3
:105B9000155C735C9D4201D1555C1554355C9D428A
:105BA00001D1535C3354401CC0B28645F0D8491C27
:105BB000C9B28E458ED800202080FB48608000202E
:105BC000632568AA54AB4100515A00290BD026889E
:105BD000B14201D9218005466688B14203D2618075
:105BE00081005958A160401CC0B21428EBD3632D2A
:105BF0004ED0A8001A5862608CA8405DA07382A89D
:105C0000405D207391A8405DE07387A8405D60739C
:105C10001746E6480090407D00213A46FB1705F004
:105C2000CFFF0646E8000191029004A9DF4D091854
:105C300003C9203DAA8D002305F0C2FF3246019B17
:105C400006F011F806B2268200980021807D3A46BF
:105C5000FB1705F0B5FF0746009102982CA909181B
:105C600003C9EA8D002305F0ABFF3A46009B05F01F
:105C7000FAFF00B26082002E01DA002103E0A98D54
:105C80008E4201DB491E2182002804DA0020608256
:105C90007FB01CB0F0BDE98D8842F9DB491E6182FE
:105CA000F6E7F3B50020C24981B00860C1498646D5
:105CB000C14D0246086047E05000295E002302986B
:105CC0001C4681423FDDD0B28446704606010198F1
:105CD00001218255019FF619317311462FE04F00C3
